:020000041000EA
:1000000000B5324B212058609868022188439860DF
:10001000D860186158612E4B002199600221596106
:100020000121F02299502B49196001219960352056
:1000300000F044F80222904214D00621196600F024
:1000400034F8196E01211966002018661A6600F04E
:100050002CF8196E196E196E052000F02FF8012189
:100060000842F9D1002199601B49196000215960AB
:100070001A491B48016001219960EB211966A021F2
:10008000196600F012F800219960164914480160C1
:100090000121996001BC002800D000471248134993
:1000A000086003C880F30888084703B5996A0420EC
:1000B0000142FBD001200142F8D103BD02B5186610
:1000C0001866FFF7F2FF186E186E02BD00000240BE
:1000D000000000180000070000035F00212200005C
:1000E000F4000018222000A00001001008ED00E03C
:1000F00000000000000000000000000074B24E7A12
:1001000000200420F7010010C3010010C5010010F9
:10011000C1010010C1010010C1010010C101001097
:10012000C1010010C1010010C1010010C701001081
:10013000C1010010C1010010C9010010CB01001065
:10014000CD010010CD010010CD010010CD01001037
:10015000CD010010CD010010CD010010CD01001027
:10016000CD010010CD010010CD010010CD01001017
:10017000CD010010CD010010CD010010CD01001007
:10018000CD010010CD010010CD010010CD010010F7
:10019000CD010010CD010010CD010010CD010010E7
:1001A000CD010010CD010010CD010010CD010010D7
:1001B000CD010010CD010010CD010010CD010010C7
:1001C00000BE00BE00BE00BE00BE00BEEFF3058054
:1001D000103800BEF2EB8871C05C0010E85C0010C3
:1001E0003802001090A31AE71E481F49086006C88D
:1001F00081F3088810471D480068002801D019487D
:10020000F3E70DA40ECC002902D000F012F8F9E7B4
:100210001749184A002000E001C19142FCD116495B
:100220008847164988471649884700BEFDE701C937
:1002300001C29A42FBD37047E85C0010C000002066
:10024000A0070020C8630010000004200000042064
:10025000C8630010001004200010042000000000FB
:10026000704700000000000008ED00E0000000D032
:10027000A0070020480D0020B945001069030010B8
:10028000B1450010F8B5C04606480749091A8B1059
:10029000C90FC91810B5491003D0044B002B00D06A
:1002A000984710BDA0070020A00700200000000014
:1002B000054B10B5002B03D00449054800E000BFF2
:1002C000FFF7E2FF10BDC04600000000040D002053
:1002D0007057001010B504001F2100F0F1FB002240
:1002E0002000002100F006FC0021200000F016FC98
:1002F00010BDC04630B5184D83B02800174904F032
:10030000C3FC0321042000F0DBFB0321052000F0E7
:10031000D7FB00220121042000F0ECFB0022012188
:10032000052000F0E7FB20230D4C29003C22200093
:100330000093603300F0F8F9200000F053FA094B05
:100340000022002120000093012300F079FB20000F
:1003500000F054FA03B030BD38020020801A0600C5
:10036000E40C002070570010F0B5DE4657464546B5
:100370004E46D024E0B5042591B0240604F028FAB6
:10038000022000F0DFFB0320656200F0DBFB0823A6
:100390000920636200F0D6FB80239B00636204F0B7
:1003A0007BFB1A20FFF796FF1B20FFF793FF1C2013
:1003B000FFF790FF00F0E0F8FFF79CFF604B6561EE
:1003C0009946604B604C0793604B08AF9A46604B70
:1003D0000693604B9846604B9B46604B059300F03C
:1003E000F7F8002000F094F9002800D08CE00120FC
:1003F00000F08EF94B461E88002802D00A3EB6B2A5
:100400001E80802322685B015340E022D20113400A
:10041000534A13600422534B1A60FC322368134280
:10042000FCD060680004000C02F07AFB4E4902F038
:1004300042FB4E4902F02BFB4D4902F03CFBE0220F
:100440002368D2011340464A051C13600422454B21
:100450001A60FC3223681342FCD060680004000C70
:1004600002F05EFB404902F026FB404902F00FFB20
:10047000404902F020FB53461860300002F050FB68
:10048000291C02F047FB00284FD0069B1B78002B4D
:100490004BD1D02308221B065A61404600F0A2F936
:1004A0004B461B88281C029302F05CFB5A460090C6
:1004B00001912021380004F033F8002201230021AB
:1004C0004046009700F0BCFA5346186802F04AFB19
:1004D000059A009001912021380004F021F80123B1
:1004E0000A2200214046009700F0AAFA404600F098
:1004F00085F9C82000F0F4FF00F06AF8002000F051
:1005000007F9002800D172E74B464A461B880A3398
:10051000138001F0FBF800290CD0FA22002392008E
:1005200001F0ACFC079B186061E7D02308221B0692
:100530009A61B2E7FA21890001F062FCF2E7C04655
:1005400098010020340D002000C00440380D002028
:10055000450D0020E40C0020845700109457001033
:1005600000D0044000E004400000404000F07F451F
:100570000000C8425555554110B5002000F0E2FA80
:10058000012000F0DFFA022000F0DCFA032000F086
:10059000D9FAD02301221B069A6201329A620232F2
:1005A0009A6204329A6201210022002000F0A2FA2D
:1005B00000220121012000F09DFA002201210220E9
:1005C00000F098FA00220121032000F093FA10BDF8
:1005D000F8B501F09BF8002940D0FA2200239200E0
:1005E00001F04CFCD0231B065A6801231E009643E1
:1005F000424A33001178B14265D041491670086013
:10060000D023022601251B065B6854781E40B307E1
:10061000DB0F6B40DBB29C4246D048605370D02366
:10062000042601251B065B6894781E407307DB0FC8
:100630006B40DBB29C4228D088609370D0230825A1
:1006400001261B065B68D4781D402B07DB0F734027
:10065000DBB29C4207D0C860D370F8BDFA21890094
:1006600001F0CEFBBEE7CA68801A3228F5D9254CC6
:100670000021E278002D02D17240D1B2002222483E
:10068000E370C1702149CA70E7E78C68041B322C03
:10069000D4D91C4CA778002E2CD000251A4EA3705C
:1006A000B5701A4DAF70C9E74C68041B322CB6D92F
:1006B000144C6778002E19D00025134E63707570A6
:1006C000124D6F70ABE70E490C68041B322C97D9A2
:1006D0000C4C2578002E03D001266E400025F6B282
:1006E000094F23703E70094E357089E77D40EDB2A9
:1006F0000027E2E77D40EDB20027CFE7A80C0020FD
:10070000980C0020AC0C0020900C0020940C0020D1
:100710000300032804D80021024A105CD15470471A
:100720000020FCE7900C0020F0B5D6464F46464628
:10073000C0B5170006008AB012AA15781A02016027
:100740002C04E8083A432243884601060A435843EA
:100750000121726002F070FA1D4B03AC03936B1E13
:100760002371D32363718023DB01E380194B203D88
:100770000593194BB060A381DA23A3736B1E9D41CF
:10078000164B2D010793164B02350893AF232376A2
:100790008A3B6B449A460023E573994602AD02E01A
:1007A0003368377998464A4623782A706B70390047
:1007B000009202232A004046013404F08DFAA2453B
:1007C000EED10AB0E0BCBA46B146A846F0BDC0467C
:1007D000AED580A88D142000A1C8FFFF818FD9F16C
:1007E000DB40A4A60300806810B5002805D0597925
:1007F000DA794A43002102F03BFA10BDF0B5CE464B
:10080000474680B58368050089B0002B62D08423F9
:100810000024002603AF9B013B80017902233A00AC
:100820000068009404F058FA3C80297902233A00C9
:100830002868009404F050FA6B793E70013B7B709D
:10084000297902233A002868009404F045FA8823A5
:100850009B013B80297902233A002868009404F028
:100860003BFA3C80297902233A002868009404F07E
:1008700033FAEB793E70013B7B70297902232868BB
:100880003A00009404F028FA6B79EC795C43002C70
:1008900020D0402399460023002698464B46A41BAF
:1008A0003B70102C00D910240D23A9686B44220042
:1008B0008919180002F0E2F94246631C2979286878
:1008C00000923A0004F008FA6B79EC7910365C4338
:1008D000B442E3D809B0C0BCB946B046F0BDC0468A
:1008E000F0B54546DE4657464E46E0B58BB014009F
:1008F000079214AA12780D00203AD2B25F2A00D9CA
:1009000094E05918C9B2894691008A184B49AC46FF
:1009100051182200013A9A18D2B209920122924645
:100920000632934608914A460021039500920491AD
:100930000899049A00278D5C6244D2B29046079CC5
:10094000414622003C00099EE04637009C462E00AE
:10095000029125001FE043790299994214D28179CE
:10096000914211D9816800290ED0D4086343029CBA
:10097000A1465C46994463461440A3401C004B4684
:10098000CB5C1C434B46CC54013267440135D2B298
:10099000FFB2082D3BD0330051462B411942F3D012
:1009A0006346012BD7D0002BEED0FB1A0133DBB20C
:1009B000039C0193059606924379A9460199A342A7
:1009C00016D982798A420CD98268002A09D0CD08CA
:1009D0006B435D4656460D40AE401B19D55C2E4319
:1009E000D6548F4204D043790131C9B2A342E8D82A
:1009F0000134009BE4B24D46A342DDD1069A674420
:100A000001320135059ED2B2FFB2082DC3D1634633
:100A10000099049A5918C9B20091039901325918E2
:100A2000C9B2C44604920391052A81D10BB0F0BC2F
:100A3000BB46B246A946A046F0BDC0467C58001051
:100A4000F0B5DE4657464E464546E0B585B00E9EAB
:100A50001500327807000C009B46002A29D0590067
:100A600059444900CBB298465B469900591A4B004D
:100A700099465B46DB009A46DBB203935B46210056
:100A8000009238002A00FFF72BFF7B794444E4B240
:100A90004B4401369C4209DD039B52469C46BB7980
:100AA0006544EDB29B1A9D4203DC00243278002A93
:100AB000E4D105B0F0BCBB46B246A946A046F0BDA5
:100AC000094A83009A1810B51468402254408032B5
:100AD0002240064CC000A44663441A60044B9C4666
:100AE0006044416010BDC04604C0014004D00140D4
:100AF00000400140074B8000C3181B68C9009200EA
:100B00000A435A400C231340034A9446604403604E
:100B10007047C04604C0014004D001408000002955
:100B200005D0064B9C464023604403607047044B4D
:100B30009C46402360440360F8E7C04604E001405F
:100B400004F001400123D022834012069362936196
:100B5000094A83009A1811684022514080320A40A5
:100B60000649C0008C4663441A60054B9C46052329
:100B7000604443607047C04604C0014004D0014057
:100B8000004001400FB400B5084883B003F070FE88
:100B9000049B002B07D005A91800019103F0D4FC99
:100BA000034803F065FE012003F0E6FCA0570010A7
:100BB000B057001070B5EFF3108C72B60D4D2B6866
:100BC000002BFCD0BFF35F8F0724CB08C618C05C96
:100BD00001230C40A3401C000440034207D11843EA
:100BE0003070BFF35F8F2C608CF3108870BD1000E5
:100BF000FFF7C8FF2C0100D0044A1078431CDBB279
:100C0000172B00D9102313707047C0469A0100209B
:100C10000021044B044ABFF35F8F02C39342FAD111
:100C20007047C046000100D0800100D0054B064A45
:100C30001360064A136053609360D360136153617D
:100C4000936170478080808000E400E004E400E06D
:100C50001F2318401E3B8340002905D0C021044AB1
:100C60004900535013607047802201498B50FAE7C6
:100C700000E100E070B50D00EFF3108672B60F4A88
:100C80001368002BFCD0BFF35F8F0D4B10309B68B7
:100C900084001B590B4A934203D09D4201D000F0BF
:100CA000A9FF074B9B681D51BFF35F8FBFF35F8F99
:100CB0000022024B1A6086F3108870BD240100D018
:100CC00000ED00E0CD010010F0B5DE4657464E467F
:100CD0004546E0B50C0083B0EFF3108872B6634A66
:100CE0001368002BFCD0BFF35F8F614B61499A689A
:100CF000030010339F00D55901938D4243D0A54284
:100D000054D05D4EAA1B2F2A3DD85C4B9B461B68D6
:100D1000994601231A009C4682404B4613401F22ED
:100D200099466346024093409A4680225B4650466D
:100D30009850BFF35F8FEFF305839B46002B37D0AE
:100D4000019B5B4501D000F055FF01232A009A4327
:100D50009068844208D176E04B005B189B00F31842
:100D60009868844236D01A00062151560029F3DAD9
:100D7000844254D04B46002B27D0C02251463F4BD3
:100D80005200995019603A4B9B68DD51BFF35F8F59
:100D9000BFF35F8F0022354B1A6088F3108803B0D1
:100DA000F0BCBB46B246A946A046F0BD0D00EAE73E
:100DB0002A0063469A4390688442D5D10620105693
:100DC000130000280ADA0D0031E0802351462B4A37
:100DD000D150D8E706201856002821DB4200111810
:100DE000890074188B46A1689960E179D971062150
:100DF00061569971002924DBA488F11A6405241531
:100E00005C44091909051E4C490D214399801318AA
:100E10001C4A9B001178F31899711070AAE713000F
:100E20005946002914D1FF31917117499180154914
:100E30000A789A71154A9B1B5B415A43120D0A703E
:100E400098E71149E2E70620105613000028C5DA9A
:100E50000F4A1049D21A083A5002400D01439980B6
:100E60000D4952080A43DA8084E7C046240100D0C5
:100E700000ED00E0CD0100109C01002000E100E049
:100E800000E0FFFF440D002001BDFFFFAAAA000003
:100E9000D601002000F0FFFF00F8FFFF70B501242D
:100EA0000443EFF30581EFF3108C72B6214A136807
:100EB000002BFCD0BFF35F8F1F4B05001F4AED1ABC
:100EC0006D416A43120D1E4D8900AE6852B27658CC
:100ED000A6421CD00621595691421CD012215956C7
:100EE000914222D01E215956914220D02A21595692
:100EF0000324914210D0134B19781A708171BFF3FB
:100F00005F8F00220B4B1A608CF3108870BDAB68AA
:100F10000D4C5C50EFE700246100091989005B1853
:100F2000FF21997109499980E5E70124F4E702243A
:100F3000F2E7C046240100D09C010020AAAA0000CC
:100F400000ED00E0440D0020CD01001001BDFFFFC9
:100F5000024B9C46614489000160704740000034A8
:100F600070B5114C114DAC420FD2FF262368002BF7
:100F70000CD0FFF741FE01002000FFF7E9FFA6803B
:100F8000BFF35F8F0834AC42F0D370BDFFF734FE7F
:100F900001002000FFF7DCFF2671BFF35F8F0834EC
:100FA000AC42E3D3F1E7C04698070020A007002039
:100FB0000A4B1968EFF3108072B60A68002AFCD059
:100FC000BFF35F8F1B68BFF35F8F00221A6080F34F
:100FD000108840BF002000217047C046300D00201F
:100FE000F0B5DE4657464E464546E0B587B0EFF3CE
:100FF0000583032201251A40954091008846A946A1
:10100000B34B03925C58B34B1D60B34B04934B46F8
:10101000B24843630823E55E002D37DAA3881BB28C
:10102000002B00DBADE0A379002B00D0EEE008231D
:10103000E05E002820DB430062691B18DB00D31848
:101040009E68DD68731C00D111E1A4480100414491
:10105000826A0B69B71A9B1A9F4215D30123026A51
:10106000039883401A420FD09C4800F047FB8D4202
:1010700002DCCCD18642CAD940BF07B0F0BCBB4627
:10108000B246A946A046F0BD0E61EDE762696B006D
:1010900092465B19DB009A4453469E68DF6800F075
:1010A0002DFB8F42BADC00D103E1002F00DAE8E02B
:1010B0005246534652691B699346049A934200D1A3
:1010C000D9E052460821605E528800045946104318
:1010D0009847009001910099019A0B00100013436A
:1010E00000D1CEE013000A00B61A9F41002806DBAB
:1010F0007A4800F003FB009E019F36184F4153468B
:101100009E60DF6000229A5E002A00DA86E75300C4
:1011100099186069C900411802938B68C9689B4699
:10112000B94200DD7AE702D1B34200D976E708235D
:101130009C46A444059565462281A446029B2C004A
:1011400006E053009918C90041188D68C968AB467C
:101150009B18DB00C318B94206DC00D1B3E01C00C9
:101160000023E25E002AECDA230064469C465346E4
:101170001A806346059D1D80A3881BB2002B00DAF0
:1011800051E72269EFF3108172B61368002BFCD08F
:10119000BFF35F8F0123A7885B42A3803FB223691F
:1011A000BFF35F8F00221A6081F31088002F00DAEE
:1011B00039E72300083322009A4666697B00DB1971
:1011C000DB00F318996850468C460824115FDD68EF
:1011D000002910DB029306E0AB4244D00023E15E1D
:1011E0002000002906DB4C006418E4003419E36891
:1011F000AB42F1DD029B078000201F5E1980002FAB
:10120000DCDA1400A379002B00D110E70023A371CE
:1012100026000823E15E08364B1C00D12CE70800AD
:10122000A246656902E03E004B1C1AD04B005B18D9
:10123000DB00EF180A008C46E95E7B881BB2002BAE
:10124000F1DA01235B42DC17BB60FC60824205D00F
:10125000534631801B893B8053461A8160464B1CA4
:10126000E4D15446E5E6A3686345B7D9C2E76B1CF1
:1012700000D0EAE6F8E65B4658461B699847002826
:101280001BD153461B8822692381EFF3108372B66A
:1012900011680029FCD0BFF35F8F514662880A8035
:1012A00022696580BFF35F8F0021116083F310888E
:1012B000B4E6864200D8F8E6B0E65B461A685B689A
:1012C0000092019307E7B34500D848E74CE7C046D2
:1012D0001C0D00203C700540E10F0010004005404F
:1012E00070B52E4C2569002D04D00A212C48FFF73B
:1012F0002FFE70BD2B4E0321300000F0F5F9E660A3
:10130000FFF77AFC284B03229C46D02322701B0651
:101310001B6801216370254B6044A3600F2380008C
:1013200020610220638063694942A18019800231F3
:10133000198647311D83585218315A5275325C391B
:10134000995218320131995218320131995218329A
:1013500001319952083518329D5202311832995292
:101360001832013199521832013199521832013133
:1013700099521832013199521832013199520C4B5D
:101380000C49DC6001303562FFF774FC0121032059
:10139000FFF75EFC084B1D60A7E7C046E401002094
:1013A000300D00200040054040000034FFFF1000D9
:1013B0001C0D0020E10F00103860054070B50100E1
:1013C0000469EFF3108C72B620680028FCD0BFF3DC
:1013D0005F8F02200D5E4C6968004019C000241820
:1013E0000869002D36DB26884E80BFF35F8F00260C
:1013F00006608CF31088E3606388049801332061F1
:101400005B0405985B0CA26060611A1C002B1FD066
:1014100093B22804628018430A69EFF3108C72B605
:101420001368002BFCD0BFF35F8F8B8823808D80E7
:101430000B69BFF35F8F00221A608CF310880B7862
:1014400001329A40CB6808498C4663441A6070BDEB
:101450000122DDE7BFF35F8F002303608CF3108868
:1014600001204042F3E7C0463C20000010B543890C
:101470000A1493421ADD53009B184269DB00D3180B
:101480000469EFF3108C72B62268002AFCD0BFF317
:101490005F8F5A88090494B2090C8A4208D0036904
:1014A000BFF35F8F00221A608CF31088002010BDFC
:1014B0008022120214435C80012302698371BFF30E
:1014C0005F8F002111608CF31088044902788C46EC
:1014D0009340C268012062441360E8E73C200000AA
:1014E000F0B5C64600B582B0040000F00FF9FA224C
:1014F00006000F00200000230021920001F0A4FA52
:101500008019794104000D1E02DA01242E4D644237
:1015100006267642F71736196F41AF4214D811D01C
:1015200000F0F4F832003B00121A8B41002B15DC5E
:10153000002B46D02000290000F026F902B080BC24
:10154000B846F0BDA642EBD90026002700F0DEF831
:1015500032003B00121A8B41002BE9DD00F0D6F877
:1015600032003B00121A8B41002B0ADB002301934F
:10157000164B3200009316483B00FFF71FFF013067
:10158000D8D000233900B0469C46124A1248536A0C
:10159000994204D8966A4645CCD29942CAD1066887
:1015A000EFF3108772B63368002BFCD0BFF35F8F68
:1015B0000368BFF35F8F66461E6087F3108820BF05
:1015C000E5E7002AB6D0C9E7FFFFFF7FB10F0010A3
:1015D000E401002000400540300D0020F0B55746E2
:1015E0004E46DE464546E0B506000F0085B0EFF3F7
:1015F000058399468B46002B12D0384900204B6A50
:10160000BB4206D38A6ADB1B591E8B41B242404162
:10161000184305B0F0BCBB46B246A946A046F0BD93
:101620002F4B9A46DB68984653461B7840460393F7
:1016300000F064F84246039B040004339B009B586F
:101640000D001B1A39003000001BA941894510DC30
:101650000DD020BF214A0020536A5B45D9D3926A3E
:10166000DB1B591E8B41B24240411843D1E78342F4
:10167000EFD900F04BF832003B00121A8B41002BDF
:101680001ADB00230193174B3200009350463B00B6
:10169000FFF794FE011E0FDD104B5A6A5A451BD30B
:1016A0009B6AB34216D35046FFF7E0FE0B4A002078
:1016B000536A5B45ADD3D2E7084A0020536A5B45C5
:1016C000A7D30020926ADB1BB24240415A1E9341CD
:1016D00018439EE75A45E6D120BFE4E700400540A5
:1016E000E4010020B10F001010B5024A0248FFF7D4
:1016F00061FA10BDB4570010B80C00200300416A15
:101700000A00986A596A8A42FAD17047034B596AAB
:101710000A00986A596A9142FAD170470040054020
:1017200070B504000D00174A536A1900966A536A8F
:101730008B42FAD13000190024184D41AB4216D823
:1017400013D0104B2A005B6A9D4203D90D494B6AA6
:101750009342FCD3934207D10A4A02E0516A99426C
:1017600002D1916AA142F9D370BDA642E9D9054BD5
:101770005B6A1C005A1CEFD0012201246442E51769
:101780005242E3E700400540064A536A9942FCD8BA
:1017900007D1044B02E05A6A914202D19A6A904200
:1017A000F9D8704700400540F8B5040006200D0048
:1017B00000F078F9002844D0374B3849E3185A1E16
:1017C00093418022120494465B429B0D344A9B0550
:1017D00063441360334A136018000A689043FBD1D6
:1017E0002D4B314AE31859424B4180215B0049009F
:1017F0000620995200F056F92900C00000F000FBC5
:101800000130C3091ED1402701226262A362266B08
:10181000F30722D4E36A254B0620E51800232B604A
:10182000266300F03FF93900800000F0E9FA7023E8
:10183000E26A5A400E3313402B601D4B236303238F
:10184000A364F8BD1B4A93421ED900231A4A1B4FBA
:101850006262A362266BF307DCD5194B144AE318C6
:101860001A60656AA36A0620AD01ED1800F01AF946
:10187000144900F0C5FAAD020100280000F0C0FADA
:101880000021FFF74DFFC5E74006800E9F011A00BB
:101890003F180300B9E7C0460080FCBF08C0004005
:1018A00000E0004000F000403C0D00202C10000043
:1018B00001030000FEFF0000FFFF0000C0FF3F002B
:1018C000303000004E0E0000F8B5DE464E4657465A
:1018D0004546E0B58B4605000A991800160000F051
:1018E0008FFA0A9B6C001F02324B64199C46A400BD
:1018F0006444636881469F4200D967602B1FDBB256
:101900009846012B30D9C02380229B01E318120195
:101910001A60294BAD0059599A4600291BD1730111
:10192000E026226853401E40802342465B01E318B4
:101930001E60012A30D9802380229B01E318120106
:101940001A6053464A4667605A51F0BCBB46B246DD
:10195000A946A046F8BD586900F052FA013043008C
:101960001B18033BFDD2DAE75B46012BCBD1C0232A
:1019700003229B01E3181A60023AA3681A42FCD0C2
:101980007301E0262268AD0053401E4080230A4ABE
:101990005B019246E3181E605A46216851400322BB
:1019A0000A401A6001225B469A40A3681A42FCD0A2
:1019B000C1E7C04600800040BC0C0020F0B54646A0
:1019C0004F46D646C0B51F00344B44009C462418F1
:1019D000A4006444636888461600FF2B02D8802365
:1019E0005B006360031FDBB29A46012B30D9C02332
:1019F00080229B01E31812011A60294B8500595976
:101A0000994600291BD17301E026226853401E40ED
:101A1000802352465B01E3181E60012A30D98023DF
:101A200080229B01E31812011A6080235B0063602F
:101A30004B465F51E0BCBA46B146A846F0BD586976
:101A400000F0DEF9013043001B18033BFDD2DAE75A
:101A50004346012BCBD1C02303229B01E3181A601C
:101A6000023AA3681A42FCD07301E026226885007E
:101A700053401E4080230A4A5B019146E3181E60D2
:101A800042462168514003220A401A60012342461F
:101A90009340A2681342FCD0C1E7C04600800040DA
:101AA000BC0C0020014B8000C0587047BC0C0020CB
:101AB000F8B5040021481E0017000D0000F0A0F941
:101AC0000100380000F09CF9069B36041B031E43FE
:101AD0002368002B20DB1A4B1A49E3185A1E934146
:101AE0008022920194465B421B0B174A1B036344FE
:101AF0001360164A13601F000A689743FBD1144B0A
:101B00002560E2182123A06013602368002BFCDA13
:101B10000823E6601360F8BD3F2322681340AB4200
:101B2000D9D1A3681B051B0D8342D4D1EE22E368F3
:101B3000D2021340B342CED1EDE7C046001BB7003E
:101B40000040FDBF08C0004000E0004000F0004041
:101B5000043000008023024A9B000B43D36270478D
:101B600000800540002310B50100988A1B8B984720
:101B700010BDC046162310B50100188802331B881B
:101B8000984710BDF8B54746CE4680B50F1E18D011
:101B900014239946043304000025012698464B4639
:101BA0001888434621681B88984701C4431E984102
:101BB00001350640AF42F2D13000C0BCB946B04654
:101BC000F8BD0126F8E7C046AA23064A1B011360A8
:101BD0008D235B00D3600449044B19605368002BCC
:101BE000FCDA70470040024000B0FA00006002409A
:101BF0007047C04610B50148FEF7C4FFD857001023
:101C000070B5074D074EB54209D20024013E761B40
:101C1000B60808CD984723000134B342F9D170BD0E
:101C2000305700106C570010054B064A06491A60E1
:101C3000064A074B1A6010000B689843FBD17047A7
:101C400000E00040BFCDFBFE08C00040FE7F3C002E
:101C500000F00040044BDB6C002B03D18022034BCF
:101C6000D2021A607047C046000011504C2011503B
:101C7000044A054B1A60054A1368DB018033FBD127
:101C80007047C046FFFFFF0100F0004008C0004061
:101C90004022034B9A675A671A67DA667047C04654
:101CA00000F0014010B5FEF7B3FF10BD70B5044D54
:101CB000044CA968C022200000F0E0FFAC6070BDB9
:101CC00000ED00E000000020002310B5294C82B098
:101CD000A367FFF779FF0122274B1A60636C012B82
:101CE000FCD10322254B1A60224A936B012BFCD1B5
:101CF000013300930121224A22480433FFF7D8FE22
:101D0000052301210093204A2048FFF7D1FE00223D
:101D1000022104201E4BFFF751FE00220121052065
:101D20001C4BFFF74BFE0022002107201A4BFFF748
:101D300045FE002200210820174BFFF73FFE8023BD
:101D4000DB000093002200210920134BFFF7BCFDAC
:101D50000022104B00210620FFF730FE0420FFF781
:101D6000A1FE0E4900F04CF801000020FFF7F2FE42
:101D700002B010BD008000403CB0004030B00040D8
:101D8000002F685900800240008C864700C0024046
:101D9000001BB70040597307006CDC0240420F0083
:101DA00001480421014B184700020020851B001048
:101DB000124A936F9B0815D29066D166002905D010
:101DC000FFE7FFE7FFE7516F106F704704B5802111
:101DD0000906C2175140002800D0C84303F098FC00
:101DE000002104BDF0B5146E556E576F166FFFF7E6
:101DF000E3FF1466556657671667F0BD000000D014
:101E0000114A936F9B0813D210665166002905D0C2
:101E1000FFE7FFE7FFE7516F106F704704B5002839
:101E200001D00020C04303F073FC002104BDC04674
:101E3000F0B5146E556E576F166FFFF7E5FF146619
:101E4000556657671667F0BD000000D094464A4AB1
:101E5000926F9208624601D228E0C046F0B5464E25
:101E6000346E756E776F366F00F020F89446424AF4
:101E700014665566576716676246F0BD94463E4A3B
:101E8000926F9208624601D254E0C046F0B53A4ED5
:101E9000346E756E776F366F00F04CF89446364AA4
:101EA00014665566576716676246F0BD002B24DB43
:101EB00011D000293EDA00B5C943404200D10131BA
:101EC00000F038F8C943404200D10131DB435242AF
:101ED00000D1013300BD002AEBD1002801D1002937
:101EE00005D00020C90FC90701D1C043410800B582
:101EF00003F006FC0022002300BD00B500290ADB28
:101F0000DB43524200D1013300F014F8C943404290
:101F100000D1013100BDC943404200D10131DB4352
:101F2000524200D1013300F005F8DB43524200D1A8
:101F3000013300BD002923D1002B18D1002A0CD079
:101F4000BC460D4F38667A6600210023FFE7FFE7A5
:101F5000FFE77A6F386F67467047002801D007485F
:101F6000010000B503F0CCFB0022002300BD0200FD
:101F70000B00002000217047000000D0FFFFFFFF92
:101F8000002B00D0BFE0130C28D1002AE7D080B48A
:101F9000114F39667A66FFE7FFE730B4040C7B6FB8
:101FA000396F1B0423433B667A66FFE7FFE7FFE7D1
:101FB000C04684B27B6F3D6F1B0423433B667A6649
:101FC000FFE7FFE7C04600232C042D0C7A6F386F23
:101FD00000196941B0BC7047000000D0F0B59446CC
:101FE0000025140E01D112020835140F01D112017F
:101FF0000435940F01D192000235D40F01D1520063
:102000000135D40B0134254F7C66254C3C660E0C03
:1020100093B2FFE7FFE7FFE73C6F6643360C7703B9
:10202000BE467343DF0B5B04C01AB941130C734304
:10203000DB18C91ACE086643360CB64493B2734314
:102040001F0F1B01C01AB941130C73431F0B1B0553
:10205000C01AB941860D8F023E436643360C092DE6
:1020600024DB520A7243801A7703460A6643360C11
:1020700016235B1BDE40DF40BF1964466643821BAC
:102080007046043506330100D940A840C01900D37A
:102090000131A24206D20023F0BD0000000000D0B2
:1020A000FFFFFFFF121B0130F3D3F1E709277F1B6E
:1020B000FE406446A2B27243801A00D20139220C5B
:1020C0007243130C1204821A99410B0070460435B6
:1020D00013370100F940A840801900D30131002BCB
:1020E00002D1A2420AD2F0BD013000D30131121B4D
:1020F000FAD2013BF8D1A24200D2F0BD013000D3A8
:102100000131121BF7E7F0B51C0C00D080E00CB4D5
:1021100000251C0A04D11B02160E33431202083597
:102120001C0B04D11B01160F3343120104359C0B09
:1021300004D19B00960F334392000235DC0B02D191
:1021400092185B4101351C00971864410134464FD9
:102150007C66464C3C660E0CFFE7FFE7FFE7C04697
:102160003C6F6643360C7703BE4697B27743C01B7D
:1021700000D20139C01B00D201399FB27743C91B7D
:10218000C91B170C77437E04FF0B801BB941CE0897
:102190006643360C0C2D33DBB644120B1F053A4355
:1021A0001B0B97B27743C01B00D201399FB2774314
:1021B000C91B170C77433E043F0C801BB941860DA9
:1021C0008F023E43664329277F1BFE400C3D774626
:1021D000AF40BF1930BCA2B2ABB272437343801A96
:1021E0009941220C7243130C1204801A9941020087
:1021F0000B000137001BA941F9D2781E0021F0BD68
:102200000C277F1BFE4077467F0BAF40FF19E0E7AE
:1022100000245D1C07D0144F7D663966FFE7FFE799
:10222000FFE7FFE73C6F95B29EB265436643401BF4
:10223000B141150C1E0C6543664336042F0C3E431A
:102240002D04401BB141994204D202000B00200032
:102250000021F0BD01D19042F7D3801A9941013499
:102260009942F2D3F6E70000000000D0FFFFFFFF25
:1022700048404140484018B41B4B5B68FC46019302
:1022800008BD04DF1B25001018B4174B1B68FC4663
:10229000019308BD00DF252500109446134A926F74
:1022A000920809D2624618B40F4BDB68FC460193D2
:1022B00008BD0CDFDD2700100C4AF0B5146E556E1A
:1022C000576F166F6246FFF7EEFF084A14665566B1
:1022D00057671667F0BD18B4034B9B68FC46019323
:1022E00008BD08DF8126001020090020000000D072
:1022F000FFB550404240504059404B40594000E0EB
:10230000FFB5154F4C00640D03D0BC4204D10C0343
:1023100014D80020090D09055C00640D03D0BC42EF
:1023200004D11C030AD800221B0D1B0501264B40BB
:1023300009D44B4003D58B4200D18242FFBD994264
:10234000FCD19042FFBD0B43DB1803431343F5D090
:10235000C9434918FFBD0000FF07000000B5FFF7A3
:10236000CFFF804100BDC04600B5FFF7C9FF01D9CE
:10237000002000BD012000BD00B5FFF7B9FF01D965
:10238000002000BD012000BD00B5FFF7B1FF804176
:1023900000BD012040054A00121804D85A00121846
:1023A00001D800207047012070470000002100285C
:1023B00005D17047C1174840401AFAD0C90713B574
:1023C000064B1B6898470CBC441CA2401005120B1E
:1023D0000349091B09051943114310BD2C0D0020A9
:1023E0001F04000010B54C00620D8023D218DB00E2
:1023F000D21A5B057E2A10DD9E3A13DACC17090348
:10240000490819435242D140640001341532202A50
:1024100005DAD0400843604310BD002010BD0846D7
:10242000604310BDC80FC018013810BD18B4044B6C
:102430005B6AFC46019308BD24DF8D290010000073
:1024400020090020132370B51D78012D19D014DD4B
:102450001F48FFF78FFB06001E48FFF78BFB1E4C43
:1024600080223100200000F009FC022D2DD01B48F5
:10247000FFF778FB1A4B186070BD1A4B164CA3641B
:10248000F5E7184B144C23606360A360E36023619D
:102490006361A361E36123626362A362E362236316
:1024A0006363A363E36323646364A364E3642365F6
:1024B0006365A365E36523666366A366E3662367D6
:1024C0006367A367E367A364D1E7064BA364CEE722
:1024D0005344000053460000200900204C33000004
:1024E0002C0D0020E924001007B5604601880A0A77
:1024F0000230DF2AFAD1C9B2820804D302884088A8
:102500000004104300E00068014A5050039007BDEA
:10251000200900200FB403BC0CBCF0B50124E40773
:10252000634000E0F0B50C0DCF0F661E3605891B29
:10253000640503D3C943404200D30131640D03D085
:10254000661CF60A07D0E41B00207F00791C89076F
:102550008912803C24031D0DDF0F6E1E36059B1B68
:102560006D0503D3DB43524200D301336D0D03D01D
:102570006E1CF60A07D0ED1B00227F007B1C9B0718
:102580009B12803D2D032F1B661B58D4A446202E82
:1025900046DA20371400BC401D00BD40F2403341F4
:1025A0002A4380185941CB0F05D0C943C0430022AC
:1025B00064425041514162464D0D28D10D0D07D165
:1025C00000281FD0241940414941013A0D0DF9D08E
:1025D000640006D3013000D30131002C01D1400842
:1025E0004000013A0BD4941CE40A04D112051144B2
:1025F000DB071944F0BDD907204B194300E0D90788
:102600000020F0BD0029DDD1002CDBD1F0BD01326E
:10261000C6074008CD0728434908002EE1D0D9E776
:102620003C2E29DA203E40371400BC4000D0012463
:10263000F24014431A00BB401C43D317ACE7AC462E
:10264000202F08DA20360400B4400D00B540F840D1
:1026500039412843A5E73C2F0CDA203F40360400DF
:10266000B44000D00124F84004430800B1400C43BA
:10267000C117EAE710001900002494E70000F07F7A
:10268000F0B50C0D661E3605891BE60A6405640D5F
:1026900002D0651CED0A04D0002001210905803C10
:1026A0002403A4461C0D671E3F05DB1BE70A6405D7
:1026B000640D02D0651CED0A04D0002201231B0525
:1026C000803C24037740644497B484B296B2744348
:1026D000070C7E43150C6F4380B26843361802D353
:1026E000012000043F183004350C00197D41844658
:1026F00088B29AB250430C0C62431F0C7C438EB2DA
:102700007E43921902D301263604A4191604170C2D
:102710003618674101BC81B29AB25143040C62433E
:102720001B0C5C4380B25843121802D301200004F2
:1027300024181004130C401863412D185E4100202A
:10274000474106BC88B293B258430C0C6343120C49
:10275000544389B251435B1802D301210904641820
:1027600019041A0C091862416D185641002047419E
:1027700018BCF902720D1143F0026A0D1043ED020C
:102780000A0D03D16D1940414941013B124E9B1B7B
:102790007600B3420ED26D0007D30130002671419E
:1027A0006646354301D1400840001B05C918E407BF
:1027B0002144F0BD0BDA013306D1013004D10131DF
:1027C0004F0D01D04908F2E7E1070020F0BD0136C6
:1027D00031050020EBE70000FF030000F0B51C0D01
:1027E000671E3F05DB1BE70A6405640D02D0661C0B
:1027F000F60A04D0002201231B05803C2403D025C7
:102800002D060026F6432E661E096E66CE0FF619BB
:10281000B44649004F0D02D07E1CF60A03D00020BA
:102820000021403F3F033E1BB600B444013F7F05FB
:10283000C91B49082E6F013676089C02950D254369
:102840007543ED137543AD1301356D10F603761B1B
:102850000CB4CC02450D2C43A2B2B3B25A43270CA0
:102860007B43350C6F43A4B26C431B1902D3012484
:1028700024043F191C041D0CA4187D4124196D412A
:10288000009A91B2ACB26143170C7C432B0C5F43AE
:1028900092B25A43A41802D301221204BF18220490
:1028A000230C52187B41019C6C431B19520ED90119
:1028B0000A434401A01A81B2B2B2514303145A43ED
:1028C000360C734387B27743D617D21900277E415F
:1028D00036049B191704160C7F185E417316ED1809
:1028E000F301002680337541A90F06D16400690AFF
:1028F000E8055B0A184309D22FE004229444803390
:102900007541A90AA8059B0A184326D340414941AD
:102910002404009A019B0D005543641B4343E41AB1
:1029200095B286B27543170C7E43030C5F4392B297
:102930005A43B61802D301221204BF183204330CD2
:1029400052197B4152429C41002C02D4002201309A
:1029500051414008CA071043490802B06246D707F0
:102960009210084BD218084B9A4203D212058918CC
:10297000C919F0BD0020002A01DC3900F0BD013387
:102980001905F5E7FD030000FE070000002200B571
:10299000203200F004F8080000BD000000220B15F2
:1029A0000AD410B5944600F031F81414013400DA5A
:1029B0000021CB17144C20470020002170476244AF
:1029C000343A0CD40C2A07DA040091409040524269
:1029D0002032D440214310BDD843D94310BD20320A
:1029E00007D40C469440524220321141D04020433B
:1029F00010BD0800C917203203D4524220321041C2
:102A000010BD1800190010BDBF2900100A0DCC0F11
:102A1000531E1B05C91A520503D3C943404200D3B4
:102A20000131520D03D0531CDB0A07D0121B0020CA
:102A30006400611C89078912803A1203014BD21A83
:102A400070470000FF03000051434343C9188C4600
:102A5000110C83B24B4310B4040C614392B280B2A8
:102A6000504362431C041B0C001910BC5941130451
:102A7000120CC01851416144704700004840414069
:102A800048400E4B5B6818470C4B1B6818470C4AB4
:102A9000936F9B0802D2094BDB681847F0B5146EA0
:102AA000556E576F166FFFF7F6FF054A14665566A9
:102AB00057671667F0BD014B9B681847200A002036
:102AC000000000D007B548404140484001E0C04602
:102AD00007B54200120E03D0FF2A03D1420218D8D4
:102AE000C00DC0054A00120E03D0FF2A03D14A02CE
:102AF0000FD8C90DC9050122414005D4414001D577
:102B0000814207BD884207BD0143491801D0C04337
:102B1000001807BD00B5FFF7D5FF804100BD0000DC
:102B2000C10FC90700D54042002817D0F44603B4AE
:102B30000B4B1B68984706BC81409E384042803151
:102B400007D20B0607D04900490AC00510430843C5
:102B500060470130F8E7490A8902F5E7704700004D
:102B60002C0D0020034BDB6FFC4618477CDF092C43
:102B700000100000200A0020132310B512481C7812
:102B8000FEF7F8FF0100012C0AD003DD80220F4878
:102B900000F074F80E48FEF7E5FF0E4B186010BD0C
:102BA0000A4C5422200000F069F80B4B6365A365C2
:102BB000E36523666366A366E36623676367A367CB
:102BC000E3672362E361E5E753460000200A002043
:102BD0004C3300002C0D0020DD2B001007B56046A3
:102BE00001880A0A0230DF2AFAD1C9B2820804D366
:102BF000028840880004104300E00068014A5050F9
:102C0000039007BD200A0020C30FDB0741000A0E16
:102C100007D0FF2A08D00909054A89181943400737
:102C200070471900002070470249C918FAE70000F0
:102C3000000000380000F07F70B505000C0002F0C5
:102C400055F86C43002804D0034B04199C4200D86B
:102C500070BD0248FDF796FF00000420E457001005
:102C600001480421014B184710020020851B001069
:102C7000014B1B681847000010020020014B5B68E5
:102C800018470000100200209A4200D28854704772
:102C90007047C046F8B55746DE464E464546E0B555
:102CA00099460A9B07009A460D9B884693460B9CC3
:102CB0009B073BD10C9B9C423DD21E1B0B941500E5
:102CC0000C005E442A004B46013521002020B84705
:102CD000B542F7D1A0460B9C002C20D045463619B2
:102CE0005346321B013C185D29004B46B847002C67
:102CF000F6D12B00350098460D9B9B070FD55B4600
:102D0000EC1A0C9BA3420AD9464698462A004B4629
:102D1000310020200134B84701354445F6D328005E
:102D2000F0BCBB46B246A946A046F8BD1600150049
:102D3000002CD3D1E0E716001500002CCED1EEE731
:102D4000F0B54546DE4657464E46E0B585B09C4652
:102D500010AB1B78149F934698460F9C129E139DB0
:102D6000BB074CD4002D42D1B44248D201233B4092
:102D700099460E9B013B9A46302304E052460134AB
:102D80001355A64201D9202CF8D14B46002B00D177
:102D900083E00E9B013B99463023A54205D82EE0E7
:102DA0004A4601341355AC4229D0202CF8D1FB06F9
:102DB0000CD57B0554D4A64263D0A54261D0119BAB
:102DC000102B50D0022B57D0202C32D1202301932E
:102DD0000E9B5A460093039763460295FFF75AFFEE
:102DE00005B0F0BCBB46B246A946A046F0BD0123E3
:102DF0003B40994601233B422AD1B442B9D3FB065A
:102E00001CD57B05DBD4002CD5D1119B102B5BD0BE
:102E1000119B022B6BD0302301240E9A1370434672
:102E2000002B10D17B073ED52B260E9A631C16551E
:102E3000CDE72300013430260E9AD654202CC5D07D
:102E40004346002BEED02D260E9A631C1655BEE786
:102E50004346002B2FD0013DB44200D289E798E7CA
:102E6000119B102BB2D1BB0637D5202CAED05823E6
:102E70000E9A13550134A7E7202CA7D02300013464
:102E800007E0631E012CC0D0119A102A31D0022A0B
:102E9000D1D162260E9AD65496E7FB06CED57B0595
:102EA00000D488E78BE723003E0790D520260E9AB2
:102EB000013316558BE70C233B405A1E9341ED1A04
:102EC000B44200D255E764E7BB060ED478230E9ACD
:102ED0000224137030235370A1E7202C00D175E732
:102EE00078230E9A135501346EE75823EFE76033C9
:102EF000EDE70E9AA61E91464E44BA0602D5582218
:102F0000327098E77822327095E7C04610B50028F5
:102F100000D110BD01F062FCFBE7C046F0B557469A
:102F2000DE464E464546E0B595B083460F009246D4
:102F300098461E9A1F9B10001900209EFFF729FA41
:102F4000002800D0EAE11E981F990122C54B524289
:102F5000FFF704FA002800D014E11E981F990122FF
:102F6000C14B5242FFF710FA002800D0E9E01E984A
:102F70001F990022BD4BFFF707FA002800D0C8E0D8
:102F80001E981F990022BA4BFFF7E8F9002800D0DD
:102F9000BFE01E981F9900220023FFF7DFF90028E9
:102FA00000D0E4E000230B93229B5B0500D40626AF
:102FB0000024302307E0172106AA013452181355C4
:102FC000013E202C01D0092EF5D81E981F99FFF73D
:102FD00009FAA84BF2009B181A685B680500089272
:102FE0000993FFF7E7F902000B001E981F99FFF7FE
:102FF00042F9089A099BFFF76EF906900791FFF7CF
:1030000015FA8146FFF7D2F902000B0006980799DE
:10301000FFF731F90022984B06900791FFF7B4F9BA
:10302000002800D10DE101239C46E1444846FFF70A
:10303000BDF902000B0008980999FFF795F90028DF
:1030400002D0002399460135002E00D1D9E0069523
:103050004D46B94614E006AA944617230A21634454
:10306000280001341F19FEF7CBFE303139702800DB
:103070000A21013EFEF7C4FE092D00D817E1050024
:10308000202CE8D14F46069D20240CAE06AA17231B
:103090009446634499465B46B34606930FE04B461D
:1030A00028000A210134E618FEF782FE303128009C
:1030B00031700A21FEF77CFE051E00D1E4E0202CD1
:1030C000EDD1069B5E469B460323229A1340012BBB
:1030D00018D1219B002B15D00B9B002B00D1FDE0BC
:1030E000219B013B2193202B0CD93023219A07E00F
:1030F000172006A9013409180B55944200D3CCE0DF
:10310000202CF5D1229B01940393219B00960293DE
:1031100022E0229B52460493219B39000393584698
:103120001E9B1F9C029600930194434600F04AF9AF
:103130000400200015B0F0BCBB46B246A946A0462C
:10314000F0BD229B5B070FD403224C4B22990192C6
:103150000391219900930291434652463900584603
:10316000FFF798FD0400E4E70422454BEEE71E9AC2
:103170001F9B00200021FFF77EF801231E901F9166
:103180000B9311E7229B54469B0711D1219B042BE3
:103190000ED9219B55469C465E46043C64442A0059
:1031A0004346013539002020B047A542F7D1B34648
:1031B000344D26002B1F99465B46A3461C00320067
:1031C000E87843463900013DA04701364D45F6D128
:1031D00023005C469B46229B04349B07A9D553469B
:1031E000219AE31A9A42A4D95E461500220043466A
:1031F00039002020B04753460134E31A9D42F5D8E8
:1032000097E72800FFF7D6F802000B001E981F99D9
:10321000FFF731F80022184B06900791FFF79EF850
:103220000CAE002800D031E7069807990022124B17
:10323000FFF7AAF8002800D028E7012301359D43B5
:1032400024E70022069807990B4BFFF787F8002820
:1032500000D0F9E64B46002B5CD101239C46E144AB
:10326000F2E6C046FFFFEFFFFFFFEF7F65CDCD41E8
:1032700065CDCDC1505C00100000E03F405800100B
:103280003858001048580010069B5E469B460323A2
:10329000229A1340012B00D181E0202C00D131E78C
:1032A0000B9B002B27D02D23335501342AE74F46A3
:1032B000069D202C00D1E7E63022331907E01720C5
:1032C00006A9013409180A55202C00D1DCE6A342D6
:1032D000F5D12E220CAE0134F254D7E60C23229AFB
:1032E000134257D0219B013B2193A34200D9FCE616
:1032F000202C00D106E7229B5B0703D52B233355F7
:103300000134FFE6229B1B0700D4FBE62023335544
:103310000134F7E6DB0700D496E69EE7229B55468C
:103320009B0711D1219B032B0ED9219B54469C4610
:103330005E46033D654422004346013439002020A7
:10334000B047AC42F7D1B346B9465F461C4EEC1CC1
:103350002A00B078434649460135B847013EAC42A1
:10336000F6D1229BBB464F469B0700D4E1E653466D
:10337000219AE31A9A4200D8DBE65E461500220045
:10338000434639002020B04753460134E31AAB428C
:10339000F5D3CEE6219BA34200D9A6E6B2E6219B57
:1033A000002B00D179E70B9B002B97D0219B013B91
:1033B00021939C4200D298E6202C00D073E7A1E62E
:1033C00044580010F0B5DE4657464E464546E0B537
:1033D00099B081468B4692469846229A239B1000CC
:1033E0001900FEF7D6FF002800D0CAE022982399E2
:1033F0000122824B5242FEF7C7FF002800D0C0E0F6
:103400002298239901227E4B5242FEF7A7FF002803
:1034100000D0B6E02298239900220023FEF79EFFF9
:10342000002800D0C9E1229B239C089309940898A6
:1034300009998023269ADB001A400D928022269C4F
:103440001201144022000B94269C07000E001C421F
:1034500000D0ADE00B00034300D0D5E0002A00D03F
:103460000AE2220006332493022313400C93022322
:10347000134200D002E2259B042B00D20FE2043B52
:103480000B93002304250A930022229823990023FA
:10349000FEF764FF002800D003E25A4B269A13403F
:1034A00004930B9B0393249B0293089B099C00931A
:1034B00001945946434652464846FFF72FFD020005
:1034C0002020269B1F27034059424B415B42184056
:1034D000531C0893594643464530C8470A9AD317A8
:1034E000D4185C40D30F0A936B1E0B9308AB9C4619
:1034F0000025674401E0202D0FD020000A21FEF7AF
:103500007FFC01357E193031317020000A21FEF731
:1035100077FC26000400092EEDD8052306930B9BAB
:1035200059460593002304930A3303930A9B4846A4
:10353000029310AB0093089A43460195FFF700FCF5
:103540000C9B002B2DD05346C41A259BA34228D98F
:103550004D465F4681461E00534639001A19202009
:1035600043460134A847A642F6D853464846259913
:10357000C21A01320023914200D386E101301818AB
:103580000FE0269B0493259B0393249B0293229B8D
:10359000239C009301944346524659464846FFF700
:1035A000BDFC19B0F0BCBB46B246A946A046F0BD72
:1035B00001432BD10B9B2200002B00D154E70023A9
:1035C0000A93249B0A9A0024934200DD85E1229805
:1035D000239900220023FEF7C1FE002800D035E128
:1035E000269B084A02941A408023DB00134304936D
:1035F000259B0393089B099CCBE7C046FFFFEF7F09
:10360000FFFFEFFFFFF7FFFF06232493B44B70008B
:103610009C46400D6044FEF7CDFEB24AB24BFEF729
:103620005AFEB24AB24BFEF72FFE3603B14B360BB1
:10363000334304000D00380019000022AE4BFEF7A2
:103640001AFEAE4AAE4BFEF746FE02000B0020000B
:103650002900FEF719FEFEF7C5FE0A90FEF7AAFE46
:10366000A84AA94B04000D00FEF735FE0022A74B27
:10367000FEF70AFEFEF7B6FEA54A0600A54B20009F
:103680002900FEF728FE040030000D000C96FEF71E
:1036900091FEA14AA14BFEF71EFE02000B00200086
:1036A0002900FEF7E8FD02000B0006000F00FEF700
:1036B00012FE320004000D003B0030003900FEF71E
:1036C000E3FD00220E900F91954B20002900FEF79C
:1036D000E4FD0022934BFEF7D7FD02000B00200013
:1036E0002900FEF7DAFD00228F4BFEF7CDFD020028
:1036F0000B0020002900FEF7D0FD0D008021040002
:1037000032003B000020C905FEF7B5FD02000B00AA
:1037100020002900FEF7B8FD02000B000E980F995B
:10372000FEF7BBFD0022734BFEF7AEFD7F4B0C9CFA
:103730009C46644400222305FEF7CDFD06000F00E1
:1037400002000B0008980999FEF708FE00280AD02D
:103750000A9B3000013B39000A930022714BFEF7AF
:103760009CFD06000F000A9A330063323900C62A16
:1037700012D802222698042510400B9A0C90002A99
:1037800025D1259B042B05D9002800D0A1E0259B3D
:10379000043B0B93042541E00222269810400B9A2B
:1037A0000C90002A12D1259B052B76D9002872D1C6
:1037B000259B0525053B0B9334E080221206944699
:1037C000229B0893239B6344099330E605250B4312
:1037D00000D1F6E608980999554A564BFEF7CCFDFC
:1037E000002808D0089809990022534BFEF7B6FD2F
:1037F000002800D0E5E6249B002B1CD00D9B002B5D
:1038000019D0249B013B2493259BAB4204D90C9BEC
:10381000002B5AD002230C9300230B930A9B002BFE
:1038200000D131E60898099932003B00FEF735FDDA
:103830000890099128E6259BAB42EDD90C9B002B03
:1038400043D000230B9302330C93E7E78020269BA1
:103850003A4A00061A40802384460294089C099D37
:103860002900DB0013430493259B6144220003934A
:103870000B00009201938EE60524A8E600230B932B
:103880000A93023304250C93FEE553468C46013B14
:1038900063441B1A72E602230C930525C2E7042336
:1038A000EDE58020089E099F000639008446269A8F
:1038B000224B6144134004930B9B32000393249BDF
:1038C00002930B0000920193F3E5259B5B1B0B9386
:1038D000A4E7022304250C93A0E79C1A013C76E69A
:1038E00001FCFFFFFB799F501344D33FB3C8608BAB
:1038F000288AC63F0000F03F0000F83F61436F6335
:10390000A787D23F71A379094F930A400000E03F97
:103910001655B5BBB16B0240EF39FAFE422EE63FB9
:1039200000002C400000244000001840FF0300006D
:103930002D431CEBE2361A3F80842E41FFF7FFFF38
:10394000F0B5DE4657464E464546E0B5A5B01E00EA
:103950002E9B92460C93CD4ACD4B80468B461A60E7
:10396000002900D1EAE1002330789946002800D1EF
:10397000ECE1C84B4C460B93C74B454657460E935C
:103980000AE0631C984622003B005946A84744467B
:103990003078002800D187E001362528F1D10823AE
:1039A0009A46043B9946023B9846013B00229C46BE
:1039B0000D943078711C0300203BDBB2102B03D830
:1039C0000B9C9B00E3589F460300303B89460D9CAF
:1039D000092B3AD9002398462A2800D1C1E00023B8
:1039E0009A462E284BD00300683BDBB2122B1ED820
:1039F0000E999B00CB589F4663460E001A43D8E7AA
:103A000043460E001A43D4E74B460E001A43D0E754
:103A100010230E001A43CCE753460E001A43C8E7A2
:103A200080235B001A43FF3B9C467078E1444E467E
:103A300067284FD82428A4D90300253BDBB2422BAA
:103A40009FD896499B00CB589F46002394461E0062
:103A500000E00131B3009B195B001E180878303E6E
:103A60000300303B092BF4D90123624689469C466A
:103A70000023B0469A460E00E1442E28B3D13021EF
:103A8000802049428C46C000024370784B468444F3
:103A90006146092900D86CE12A2800D17AE1012386
:103AA0009C464E46E1449EE7A146A846BA46CA4512
:103AB00003D801235B425344994653464A4659462C
:103AC0000020C047200025B0F0BCBB46B246A94646
:103AD000A046F0BD0300693BDBB20D930F2B00D96C
:103AE0004FE7012199408C466D49894661464B4616
:103AF00019400F91634649460B4200D028E10D9BC7
:103B00000A2B3AD0072B00D03BE70C9B190008C9C1
:103B10008846002B00D14BE121200243914614A995
:103B20008C461F220F2162448C4651460D950C9104
:103B3000A24615000F9902E020290CD0130064461C
:103B40001C4020003730092C00D807380131685458
:103B50001A090F2BF0D80C9B54460D9D9A460F91D5
:103B600033E10C9B02CB8846002947DB0C930123F1
:103B70009C4670784E46E14431E70C9B02CB14938F
:103B80005346002B00D138E19C4608780B000C907E
:103B90008C44002801D100F098FC89466146944687
:103BA00003E05A780133002A01D08B42F9D149460B
:103BB00062465B1A0C900F93530500D520E1022357
:103BC000180010400D90134200D1CBE30D930B1B56
:103BD000B1469A465E460C9822003B003100A84749
:103BE00053460134185D0028F6D1B3464E460D9B6E
:103BF000002B00D0C7E1149B0C93C9E60C93012362
:103C00009C46283849420243884670784E46E14433
:103C1000E5E670786C2800D17FE180235B001A43D1
:103C2000FF3B9C46E14402E780239B001A430123AB
:103C30009C467078E144FAE67078682800D173E118
:103C400080231A437F3B9C46E144F0E6672800D17D
:103C500003E1472800D15AE1452800D15AE10492F6
:103C6000072142460C9B0392073352468B431900AF
:103C700002920CC92800009201930C9122003B0093
:103C80005946FFF79FFB040082E6C0464139001009
:103C9000000D0020B05A0010F45A0010405B0010D4
:103CA00041900000462800D1DBE004920721424603
:103CB0000C9B0392073352468B43190002920CC9A6
:103CC0002800009201930C9122003B005946FFF717
:103CD00025F904005CE6631C984622003B00594627
:103CE0002520A847444653E60C9B04330D93631CE0
:103CF0009946920700D422E10C9B2200187859467D
:103D00003B00A84743464444012B00D885E23300DA
:103D1000B8462E005F4625004C4699462200434691
:103D2000013439002020B047AC42F7D12C00BB460B
:103D3000350047464E460D9B0C9329E6DB4B307809
:103D4000984600239946002800D012E60024AEE6EB
:103D50006F2800D188E000D80BE31023782800D129
:103D6000CFE09A430A239C4600230F930A330D9316
:103D700080E05646B1008919490001330E181878C1
:103D8000303E010030390929F4D9B2461E00013312
:103D9000994628E60C9B023602CB8A46C943504618
:103DA000C917084082460C933078731C99461AE66E
:103DB00010231000984311331843814680201300CC
:103DC000C0000340024200D1A9E64B4606930823F7
:103DD00005935346049310230393002302930F9BF0
:103DE000220001931CAB009359463B002800FEF7CC
:103DF000A7FF434604000C93CAE501235B42C3E6D8
:103E00000F9B534501D953460F93022318001040CE
:103E10000D90134200D1B7E10D93D1460B1B9A468A
:103E20003300A1442E0022004D460C98B9465F464F
:103E30009B4608E04B463900541CB0475346185D7A
:103E4000002877D022009542F4D15B46BB464F460E
:103E5000A94635004C461E00C9E680231B011A43C3
:103E6000FDE620231A4320E708239C4600230F93F6
:103E700008330D9380231100DB0019401A4200D152
:103E800016E10D239A431000802302009B001A4084
:103E90001492184200D0C2E1802302005B001A4055
:103EA00091460C9A04320F92184200D0B7E24306B2
:103EB00000D59FE1030600D419E30C9B1B880993EE
:103EC000002B00D0FCE110339843002900D1F7E12A
:103ED0000023994643460593534604930D9B069051
:103EE00003930023D2E0582808D0622867D1022328
:103EF0009C4600230F9302330D93BBE720231A4304
:103F0000103B9C4600230F9310330D93B2E78023A0
:103F10001B011A4320231A43A1E6C0239B001A4326
:103F2000F31C9946B07882E5C0231A43F31C9946E6
:103F3000B0787CE535005E46BB464F4657E64346C3
:103F4000012B00D863E1631E43449A463300B9460F
:103F50002E005F4655469B46A24622004B46013442
:103F600039002020B047AC42F7D135005E46BB4651
:103F70004F46A14654460C9B4A46187859463B008A
:103F80004444A847D7E6A1460F9B984500D832E69F
:103F90004444E41A3300B8462E005F4625004C46E0
:103FA000994622004346013439002020B047AC42F4
:103FB000F7D12C00BB46350047464E461BE6802312
:103FC0001000DB0018401A4200D10FE11121180047
:103FD0008A430D920D9A802311009B0019408C4654
:103FE0001A4269D1802311005B00194089460C995F
:103FF00004310F911A4200D0CAE113005B0600D5CC
:10400000F0E013001B0600D459E20C9B00229B5EDB
:10401000D9175A184A4092B2D90F0C91002B00D1EF
:10402000F9E1100014AA944642461F231492524606
:104030006344A84616944D460400B946B2461F0094
:10404000159201E0202D0FD020000A21FDF7D8FEA7
:1040500001357E193031317020000A21FDF7D0FE84
:1040600026000400092EEDD8149B4F46A94645466C
:104070009846159B56469A46169C0D9B06934346BA
:104080000593534604930A2303930C9B02934B46D8
:1040900001931CAB2200009359463B002800FEF719
:1040A0004FFE0F9B04000C9372E4C046912C00104D
:1040B0000C239A431000E7E607220C9B0733934337
:1040C000013294469C4462460C920CCBD90F0F915E
:1040D0001100194300D191E0D91713911291514069
:1040E000109113995940119110981199129A139B9C
:1040F000801A99411090119114AA002394464246C7
:104100009946149252461F336344A846B246169409
:104110004E46109C119DB94615921F0001E0202EBD
:1041200010D0200029000A220023FDF7A7FE013647
:1041300030322B00BA550D0022000400002BEED1C6
:10414000092AECD8149B1094119545469846159B66
:104150004F46B14656469A46169C0D9B06934346DB
:104160000593534604930A2303930F9B02934B46F4
:1041700001931CAB2200009359463B002800FEF738
:10418000DFFD0400FFF704FC0F9B984500D8C1E158
:104190008023DB000D9343460F9A1B199B1A994607
:1041A00033002E004D46B9465F469B460C912200D7
:1041B0004B46013439002020B047AC42F7D143468A
:1041C0000C9901330F930B7835000C935E46BB4678
:1041D0004F46002B00D10EE50D9B002B00D1F6E4DD
:1041E000002319E60C9B1B781A0015E710239A434D
:1041F0000D92EFE60C9B1B78099361E6002399462C
:104200000028AAD1002200231092119374E70C9B7E
:104210002200187859463B00A8474C468BE50C9A7B
:10422000FA3BFF3B07329A430133994691444B4690
:104230000C931368526815921A4306D110329043BA
:1042400000220992002900D081E06122810600D578
:104250004122D2B20A9214AA91460A9A00210A3A3D
:10426000149242461792524618925A460991B34602
:104270001F311E000F9B4944BA4619941A95002419
:10428000674698468946159D16901B920AE0303283
:10429000D2B24B4601341A55A8454AD0202C4AD0F8
:1042A00006000D003A00002330002900FDF7E6FD6E
:1042B000D2B2092AEBD9149B9C466244D2B2E8E7F9
:1042C0006123820600D54123DBB20A3B0C934346AF
:1042D00014A91F228C46159353466244A046B24649
:1042E0004C461797A9461700099D0D9E14901693EA
:1042F00008E03033DBB201343B55B5420ED3202CFD
:104300000CD0050031002800FDF77AFDCBB2092959
:10431000EFD90C9A94466344DBB2ECE7159B4D460B
:10432000A14644469846169B564614989A46179FAF
:10433000D0E5B742B2D9179B57469846189B5E46C0
:104340009A461B9B09949B461698199C1A9D4346B6
:104350000593534604930D9B069003930023029309
:10436000099B05E70F9B984500D914E701330F938C
:104370002DE41023110099430D91692800D0BAE073
:1043800080231000DB0018401A4200D122E61DE60F
:104390000C9B1B68DA0F1100002B00D18CE0DA17A0
:1043A0009818504014AA914642461F231492524630
:1043B0004B44A046A946169704006546B2461F0026
:1043C0000C91159201E0202D0FD020000A21FDF75D
:1043D00017FD01357E193031317020000A21FDF7BB
:1043E0000FFD26000400092EEDD8149B4446984684
:1043F0000C9BAC461900159B56464D469A46169F97
:104400000D9B0291069343460593534604930A235A
:10441000039363463CE6002800D02EE602E60C9BA0
:104420001B689946002B03D110339843002938D1DB
:104430006123820600D54123DBB20A3B0C9343463D
:104440001693534614A91F228C4617932B006244DF
:10445000A0464D46B246189799461700149C0D9EEB
:10446000159008E03033DBB201343B55B5420ED332
:10447000202C0CD0050031002800FDF7C1FCCBB288
:104480000929EFD90C9A94466344DBB2ECE7169BFA
:10449000149444469846179B56464D469A4615989E
:1044A000189F43460593534604930D9B0690039330
:1044B00000230293149BEBE50028A1D172E70C9B2B
:1044C0001B68D9175A184A40A6E580231000DB0064
:1044D00018409C460F901A420FD002200300134050
:1044E0000F93104219D00023A1460F934CE50C9B6B
:1044F0001B680993E4E40A0034E402231800104026
:104500000D90134200D03EE54346002B00D042E61A
:10451000FFF771FB01330F937FE463460D93F3E7DD
:104520000CB430B585B008AC08CC064D0A00009438
:10453000010028000394FFF703FA05B030BC08BC63
:1045400002B01847892C001010B5094A03001468FE
:1045500084B0002C08D0012200910648524203A9E1
:10456000A047012004B010BD00F082F90020F9E757
:10457000000D00200D2F001000BEFDE7094A0300CA
:104580001068002805D00849C3188B4207D813606B
:10459000704706480449C31810608B42F7D90120C0
:1045A0004042F5E7FC0C002000000420480D0020EC
:1045B00010B5FFF7E1FFC04670B5FDF721FB074DD1
:1045C000074EB54209D20024013E761BB60808CD3D
:1045D000984723000134B342F9D170BD6C570010E5
:1045E00070570010030010B5080011001B689847B1
:1045F00010BDC046F0B5C64600B5437D07000C00AF
:104600001600002B46D0002A17DD0B780A2B24D089
:1046100000239846012E13D001252900635C013543
:104620000A2B26D0B542F8D1464509DCA419013C35
:1046300023780D3B5A4253413B7580BCB846F0BDD0
:104640004346E018A419F11A013C3B6898472378C7
:104650000D3B5A4253413B75EFE7037D002BD7D109
:1046600002210F483B689847012EDFD0012398466E
:10467000D2E7631E5B5C0D2BD4D0884504DA434639
:10468000C91AE0183B689847022105483B68A846CC
:104690009847C7E70368110020009847CDE7C04658
:1046A000A05C0010F0B54546DE464E465746E0B5E4
:1046B00083B091461C0080460D00FDF727F80023CB
:1046C000304A12184B41002B02DA01222E4B524283
:1046D0002E4908008A4601F023F807006B1C03D11D
:1046E000404600F083FE0500002C27D0284E294BC1
:1046F0001C68002C18D04B46002B21D1264B994624
:1047000002E02469002C0FD02368002BF9D04B461F
:104710001B68002B01D09C42F3D120002A004146A7
:10472000B0472469002CEFD1002F26D1280003B018
:10473000F0BCBB46B246A946A046F0BD174ED6E730
:10474000154B99460A239B4602E02469002CEBD0C6
:104750002368002BF9D04B461B68002B01D0A342E5
:10476000F3D12A0041462000B0476B465A4620004C
:10477000DA71D91D0122B047E7E7504600F0B8FFD3
:10478000D4E7C04640420F00FFFFFF7F980700209C
:10479000F5450010F00C0020F80C0020E545001055
:1047A0000A4A1368002B05D10CE01A001B6910326D
:1047B000002B07D08342F8D1002902D1186910607C
:1047C000196170470029FCD01060FAE7F00C002056
:1047D00010B500F039F9012010BDC046F0B5CE4645
:1047E000474680B583B06B460600DD1D2870FCF798
:1047F0008DFF0023194A12184B41002B02DA0122C7
:10480000174B524217490800884600F089FF164BA3
:1048100081461C68002C14D0144F02E02469002C3F
:104820000FD02368002BF9D03B68002B01D09C42AD
:10483000F4D1200001222900FFF7DCFE2469002CBE
:10484000EFD14B46002B05D1300003B0C0BCB946B8
:10485000B046F0BD404600F04BFFF5E740420F0088
:10486000FFFFFF7F98070020F00C0020F80C0020CD
:1048700070B5040000F0BAFD01230100050001221B
:104880002000FFF70FFF084B1C68002C06D0636860
:10489000002B05D098472469002CF8D1280070BD62
:1048A0002469002CF3D1F9E7F00C0020F0B50029C1
:1048B00015DD0E4B0D271A680D4B0E4CD3185D42BB
:1048C0006B41451820215B001E5F0478A64207D08B
:1048D00093691942FCD101301460A842F5D1F0BDB2
:1048E00093691942FCD11760F2E7C046400D0020E1
:1048F0000080FCBF3C0D0020204B70B504000D1E55
:104900001E682ADD002010211D4B013C1A689369A6
:10491000194214D1013093691942FCD11368235410
:104920008542F4D1002E08D050239363516B183B7D
:104930000B4014498C4662441360280070BD002E61
:1049400008D050239363516B183B0B400D498C46A4
:10495000624413600028F1D10CE0002E0AD05022EE
:10496000074B1B689A63596B183A0A4005498C46F5
:1049700063441A6003204042E0E7C046B00C0020C8
:10498000400D002034100000064B10B51B68002BB2
:1049900006D00021044A12689163044A10689847BF
:1049A00010BDC046B00C0020400D0020B40C00200B
:1049B0000822034B19688B691A42FCD17047C04624
:1049C000400D0020F8B51A4F1A4B3A680500D3186D
:1049D00058424341184E14331C003368002D02D056
:1049E000002B0FD0F8BD002BFCD0002120009563D8
:1049F000FCF72EF920001149FCF766F9104B3560E1
:104A00001D60EFE70E4B200019600C493560FCF784
:104A100031F901212000FCF71BF950223B689A6311
:104A2000596B183A0A4007498C4663441A60D9E723
:104A3000400D00200080FCBFB00C00208949001010
:104A4000B40C0020341000000D4B10B51B780D4B3A
:104A50000D4C1B780D4B02211B780D4B0020236061
:104A6000FCF72EF802210120FCF72AF8E12120684A
:104A70004902FCF799FE01210648FFF791FE10BD9F
:104A8000E45C0010E05C0010400D0020DC5C0010D5
:104A9000004003402002002001230121084A136046
:104AA000084A1360084A080013689843FBD1074A74
:104AB00011608021490013680B42FCD07047C0464A
:104AC00000E0004000F0004008C0004000C004408A
:104AD000F0B5DE4657464E46454690460022E0B5C4
:104AE00085B01E000EAB1B7807009B460368DA6694
:104AF00001325960DA66002E60DD02795946920271
:104B0000924601224A4052029446802291465A46D9
:104B1000802403926246BB46002010214746B446DB
:104B2000751EA4000192421B160072427241019E42
:104B30005242164002963E5CB046564642461643E6
:104B40003200029E16431E61019E5A6B1142FCD038
:104B50004A469A5801969246002A0AD1A84228D07D
:104B60000022013092468445DDD1039B5F469B467F
:104B700016E05A6D012290465A6B2242FCD01A6E02
:104B800042460196002AEBD0039B5F469B46534664
:104B9000002B15D05346DB0712D453461B070FD505
:104BA0005B463B7105B0F0BCBB46B246A946A04689
:104BB000F0BD039A002AD3D19046DDE70020EFE74D
:104BC00001204042ECE7C046F8B5DE4657464E4667
:104BD00045468346E0B505200C00FCF763FF060060
:104BE000600821008019FDF70BF9430098468044C6
:104BF000070005214046FDF703F93B1A9A461E4B74
:104C00008146700080199C4231D81C49FDF7F8F8A4
:104C1000451C5B461C680023E366226804335A4047
:104C20000233134080225201A21813605346E361FD
:104C30004B462362434601204F2B03D95021404667
:104C4000FDF7DEF8A023E050E36F39005D400C4B28
:104C50002D042D0CE3181D6001233000E366FDF7E1
:104C6000CFF8F0BCBB46B246A946A046F8BD054900
:104C7000FDF7C6F8451CCCE73F420F008096980030
:104C80007C10000040787D010F4A70B5821A531ED7
:104C90009A410E4BD20008321A600D4B0D4C1A602F
:104CA000150023689D432B1EFAD166240268FF3449
:104CB0000571D5661460633C8833FF3CD56395630A
:104CC000D450FFF781FF70BD3802002000E00040A3
:104CD00000F0004008C0004010B582B06C46247C53
:104CE0000094FFF7F5FE02B010BDC046030010B5FA
:104CF0000A0003490868190000F004F810BDC04616
:104D00005006002070B50B0C0024150C002B28D188
:104D1000002D3CD18BB291B2594300F047F8051EEB
:104D200033D00300083B5A6803239A43043A242AE9
:104D300012D80300132A0AD90460446008331B2ADE
:104D400005D98460C460242A2AD0030010330022CD
:104D50001A605A609A6002E00021FDF789FF28007E
:104D600070BD002D16D1151C89B292B24A43ADB266
:104D70009BB26B43110C5B18190C0BD1190492B246
:104D8000114300F013F8051ECBD10025E7E72B1CDB
:104D90000D1CE9E700F012FB0C2300250360DEE7A1
:104DA0000300046118334461D1E7C046F0B54E46B4
:104DB0004546DE465746E0B50D000B35060085B08A
:104DC000162D21D8102900D9D4E000F0D5FA1025ED
:104DD00018230221CA4FFB181A005C68083A944253
:104DE00000D186E103226368A1689343E268CA6048
:104DF00091600121E3185A6830000A435A6000F0BC
:104E0000C3FA20000830B8E007239D4300D5B1E085
:104E1000A94200D9AEE000F0AFFAFC235B009D424E
:104E200000D2E0E1690A00D1AEE0042900D9A1E195
:104E300038239846A90988443931CB0008225242C8
:104E40009446AF4FFB189C446346DC68A44514D0DD
:104E5000032399460B0061469C4607E0E068002A60
:104E600000DB40E1814200D141E104004A46636831
:104E700093435A1B0F2AF1DD41463A003C69083240
:104E8000944200D11EE1032063688343581B0F281E
:104E900000DDACE13A617A610028AADA7A689046CE
:104EA00080229200934200D336E1DA0858090123A8
:104EB0008340404618438046D300DB199A687860E7
:104EC000E360A2609C60D46001208B109840404554
:104ED00062D8434603420AD1032399434346400024
:104EE0000431034203D1400004310342FBD00323C9
:104EF000B3469C460E00B8460190F00040440100C5
:104F0000B246CB680BE064465A681F00A243DB68D8
:104F1000541B0F2C00DD39E1002C00DB53E19942DA
:104F2000F1D101239946CA44534608319B07E8D181
:104F3000032205E003680838013E834200D013E2F3
:104F40003242F7D14346019A5B689343424653602D
:104F5000019A520001929A421CD8002A06D119E007
:104F600004229146019ACA44520001921342F7D09A
:104F70005646C2E70C233360002005B0F0BCBB46A8
:104F8000B246A946A046F0BD80233F22402190466C
:104F90009B0053E75E4647460322BC686368934321
:104FA0009846AB4203D35B1B0F2B00DD8DE0230043
:104FB00043440293534B08201B6810335B19019341
:104FC00000F006FA504903900B688A46013306D078
:104FD0008446019B4242013B6344134001933000ED
:104FE000019900F0D9F903008146013300D11CE199
:104FF000029B834200D916E1444B02989B461A68F3
:10500000019B59469C4662440A6003990139484510
:1050100000D157E153461B68013300D15EE14B4696
:1050200002981B1A9B185A46136007234A464846A3
:105030001A400292184200D115E1039801338446C8
:105040009B1A019A99444A44019263440A409B1A6C
:10505000194030008A4600F09FF9431C00D158E106
:105060004B46C01A0300534401935B461A68012063
:1050700052441A604B464946BB60019B03434B6058
:10508000BC4213D043460F2B00D82BE107210C3B29
:105090008B4361680140052019436160E118486055
:1050A00088600F2B00D93FE14B465B6818490868C0
:1050B000904200D20A6017490868904200D20A6004
:1050C0004C46B4E07B689846FEE601222900134373
:1050D0001143651961603000BD606B6000F054F9E8
:1050E0002000083049E7A268D060826081E661460E
:1050F000C3E6DC680231A34200D1BEE672E6C046D8
:1051000048020020540B002040020020240B002005
:105110004C0B0020500B00205A0A042A7CD9142A78
:1051200000D9B0E010005B3082465C32D20008202B
:1051300040428446BA189444624692680B308146D5
:10514000944500D186E00800A2466146844602E00C
:105150009268914204D04C465068A0439842F7D8D8
:10516000D368614654469C466346A260E3609C60F7
:10517000D460A9E6142967D9542900D98CE06E239C
:105180009846290B88446F31CB0057E6BA46012078
:10519000514684464919054350464560856847464F
:1051A0006046EB605E469D605346396179612043FD
:1051B00008374860CF6030008F609C5000F0E4F802
:1051C00050460830D9E6BA4601205E46524451683E
:1051D00001435160BA683000D3609A6000F0D4F89F
:1051E00038000830C9E62B00E9080833F2E56119F8
:1051F000884601218C460D434146656039617961DD
:10520000CA608A60624602434A60E050300000F0A3
:10521000BBF820000830B0E69A0910003932383067
:105220008246D20083E7BC4241D0BC686368032257
:1052300093431A005B1BAA4202D30F2B00DD44E705
:10524000300000F0A1F897E65B23984688445C3173
:10525000CB00F3E5534698100123834040461843A2
:105260008046786080E7019B039A4B440B40D31A39
:10527000194030008A4600F08FF8431C00D0EFE65A
:1052800000239A46F1E6542A2ED81A0B10006F32EA
:105290006E308246D2004AE7AA235B0099422ED89C
:1052A000DD3B9846E90B88447831CB00C6E5304BAE
:1052B0009B461A68019B9C465B4662441A60039BAE
:1052C000591EA7E64846084200D0A3E6B968434401
:1052D000894601210B4349464B60E7E653464A465F
:1052E0001A60A2E64860ABE7AA204000824226D8B6
:1052F000DA0B1000783277308246D20017E71D4B68
:10530000994226D87C239846A90C88447D31CB004D
:1053100094E5019A029B94464A46083B63449B1AD3
:10532000019300239A46A0E621003000083100F0E6
:10533000E5F85B461A68BB6899465B68B6E60D48B7
:1053400082420CD89A0C10007D327C308246D2000A
:10535000EDE6FE237E227F2190469B006EE5FE2235
:105360007E2092008246E2E643465B68F0E5C04656
:10537000240B00205405000010B5024800F024F86A
:1053800010BDC046200B002010B5024800F01EF8EA
:1053900010BDC046200B0020002370B5064C050050
:1053A00008002360FFF7EAF8431C00D070BD2368B3
:1053B000002BFBD02B60F9E7F40C0020014B1868A0
:1053C0007047C046500600207047C0467047C04630
:1053D000802310B55B01082801D1180010BDFFF72C
:1053E000EDFF16230360173BF7E7C04610B58307B0
:1053F0000AD00300032102E001330B4205D01A78E2
:10540000002AF9D1181A10BD030019680C4A0D4C76
:105410008A188A4322420FD15968094A04338A18EC
:105420008A43224208D15968054A04338A188A43BC
:105430002242F1D000E001331A78002AFBD1E1E7E3
:10544000FFFEFEFE80808080F0B5C646060000B5F7
:1054500008200D00FFF7BCFF04003000FFF78CFFB1
:10546000234B210098469B685F6803239F433800C5
:105470001138401B0019FCF7C3FC451E6543AC42C4
:1054800008DC00213000FFF787FF43469B68DB19EB
:10549000984206D03000FFF777FF002080BCB84666
:1054A000F0BD30006942FFF777FF01300ED00122D6
:1054B00043467F1B9B6817430E4A5F6013683000AA
:1054C0005B1B1360FFF760FF0120E7E7002130005E
:1054D000FFF762FF43469A68831A0F2BDADD064C0A
:1054E00004492468001B086001210B435360D1E785
:1054F00048020020240B002040020020F0B5D646D0
:105500004F46464605000C00C0B5002948D0FFF7BD
:1055100033FF2100012708394B6803209C46BB4319
:10552000CE18726882436046384080466A48914689
:105530008468B44200D17CE07260B41864683C4076
:10554000A2464446002C30D10C68A446091B8C6846
:105550006344A4460824A0468044C4455CD0CC687B
:10556000A04664464246E26094605246002A1FD03C
:105570001F434F60336080229200934230D2DA089A
:105580005C090123A340446823434360D3001B18F4
:105590009A68CB608A609960D1602800FFF7F4FEBA
:1055A000E0BCBA46B146A846F0BD5246002A0FD12B
:1055B00001224B44CF18BC46B468484F1A43BC4242
:1055C0005BD0F668E660B4604A6062461360D2E77A
:1055D00062463A434A608022336092009342CED3BF
:1055E0005C0A042C3FD89C09260039343836E40084
:1055F00004192268083C0327944203D14EE09268C4
:10560000944203D05068B8439842F8D8D468CC602C
:105610008A60A160D160C0E75246002A35D14B4470
:105620001A00B068F3681743C36098604F608A50EF
:10563000B3E74B441A004346002B06D10B68C91A46
:105640008C68D218CB68E3609C60012313434B60E5
:10565000234B81601B6893429FD8224B2800196816
:10566000FFF7F2FE99E7142C13D9542C1DD81C0B0C
:1056700026006F346E36E400BAE7E160A1604A604C
:105680006246CC608C60136087E71F434F603360D5
:1056900083E726005C345B36E400A9E70123B610FB
:1056A000B340466833434360B1E7AA2252009442B4
:1056B00005D8DC0B260078347736E40098E70A4AF0
:1056C000944205D89C0C26007D347C36E4008FE79C
:1056D000FE247E26A4008BE7480200205002002012
:1056E00044020020540B002054050000F8B5C046C9
:1056F00001B40248844601BC604700BF5901002044
:1057000001B40248844601BC604700BF810100200B
:1057100001B40248844601BC604700BF81010020FB
:1057200001B40248844601BC604700BFC1000020AC
:10573000291C0010551C0010A11D0010612C001028
:1057400045240010792B0010C91C0010711C00109A
:10575000911C0010A51C0010610F0010AD1C001062
:10576000E1120010F11B00102D0C0010B10200100E
:1057700048544C204C4F45545245474C4552204DBF
:10578000494E490054656D703A20252E3166202F10
:1057900020256400553A20252E3266560000000070
:1057A0000A2A2A2A2050414E4943202A2A2A0A003E
:1057B0000A000000486172647761726520616C6163
:1057C000726D20256420616C726561647920636C60
:1057D00061696D65640000004861726420617373E3
:1057E000657274004F7574206F66206D656D6F7201
:1057F0007900000052656C6561736500626F6F74BB
:10580000325F77323571303830000000322E312E61
:10581000310000007069636F000000007069636F01
:105820005F6C6F65747265676C6572004D6179209D
:105830003139203230323500666E692B00000000AD
:10584000666E69006E616E00666E692D0000000074
:105850005541525420737464696E0000554152548E
:10586000207374646F7574005541525420737464CE
:10587000696E202F207374646F757400000000003F
:105880000000005F00000007000700147F147F1471
:10589000242A7F2A122313086462364955225000B5
:1058A00005030000001C2241000041221C00082AC0
:1058B0001C2A0808083E08080050300000080808A4
:1058C0000808006060000020100804023E514945AD
:1058D0003E00427F400042615149462141454B31E3
:1058E0001814127F1027454545393C4A4949300173
:1058F000710905033649494936064949291E0036CA
:10590000360000005636000000081422411414141A
:105910001414412214080002015109063249794148
:105920003E7E1111117E7F494949363E4141412257
:105930007F4141221C7F494949417F090901013EBC
:105940004141497A7F0808087F00417F410020409B
:10595000413F017F081422417F404040407F0204C4
:10596000027F7F0408107F3E4141413E7F090909C3
:10597000063E4151215E7F09192946464949493170
:1059800001017F01013F4040403F1F2040201F7F19
:105990002018207F63140814630304780403615102
:1059A00049454300007F4141020408102041417FE6
:1059B0000000040201020440404040400001020493
:1059C0000020545454787F48444438384444442098
:1059D000384444487F3854545418087E090102085A
:1059E0001454543C7F0804047800447D4000204057
:1059F000443D00007F10284400417F40007C041893
:105A000004787C0804047838444444387C14141422
:105A100008081414187C7C080404084854545420C2
:105A2000043F4440203C4040207C1C2040201C3C43
:105A30004030403C44281028440C5050503C4464B2
:105A4000544C44000836410000007F0000004136FD
:105A5000080008082A1C08081C2A080806005250DA
:105A6000D3F07542F457001006005250E182887F4F
:105A7000FC57001006005250ABB360530C58001096
:105A800006005250BBFF3CB614580010060052509E
:105A9000861C03021C580010060052505422A29D7E
:105AA0002C58001005005250DE65F468C8630010E1
:105AB000183A0010C8390010C8390010103A001008
:105AC000C8390010C8390010C8390010C839001092
:105AD000C8390010C8390010C8390010083A001041
